:020000040003F7
:20C0000060340020D1C20300E3C20300E5C203000000000000000000000000000000000084
:20C02000000000000000000000000000E7C203000000000000000000E9C20300EBC20300F6
:20C04000EDC20300EDC20300EDC20300EDC20300EDC2030000000000F5DC0300EDC20300E0
:20C06000EDC20300EDC20300EDC20300EDC20300EDC20300EDC20300EDC20300EDC2030030
:20C08000EDC203004FD60300EDC20300EDC2030065D60300EDC20300F1DE0300EDC20300EE
:20C0A000EDC20300EDC203000000000000000000000000000000000000000000000000001C
:20C0C00000F002F800F040F80CA030C8083824182D18A246671EAB4654465D46AC4201D18E
:20C0E00000F032F87E460F3E0FCCB6460126334200D0FB1AA246AB463343184738370000A0
:20C1000058370000103A02D378C878C1FAD8520701D330C830C101D504680C6070470000AB
:20C120000023002400250026103A01D378C1FBD8520700D330C100D50B6070471FB5C04655
:20C14000C0461FBD10B510BD03F00CFA1146FFF7F5FF00F01EF903F024FA03B4FFF7F2FF7B
:20C1600003BC03F029FA0000144C144D0646064FF0B4034C024D024E014FF0B4074800476C
:20C1800000000000000000000000002100000000000000000000000000000000F9FFFFFF88
:20C1A000016881F308884068034AEFF305839A42DAD1024CA646004700000000FFFFFFFFAF
:20C1C000401E00BF00BF00BF00BF00BF00BF00BF00BF00BF00BF00BF00BFF1D17047000094
:20C1E000401E00BF00BF00BF00BF00BF00BF00BF00BF00BF00BF00BF00BFF1D17047000074
:20C2000070B505460C46164602E00FCC0FC5103E102EFAD2082E02D303CC03C5083E042EFD
:20C2200007D301CC01C5361F03E021782970641C6D1C761EF9D270BD10B500F01DF80028A0
:20C2400005D01F491D484860C8131E4988611E48018CC9B201290ED1818C09070BD1018D6B
:20C260000906090F042906D1808D0006000F02D116490120886010BD1348018CC9B20129DC
:20C2800017D1818C090714D1018D09060A0F03D1828D1206120F0ED0090F012903D1828DDF
:20C2A0001206120F07D0032903D1808D0006000F01D000207047012070470000DFFF07C027
:20C2C00000050040006C0040C00F00F0000600400A48026803210A43026009488047094870
:20C2E0000047FEE7FEE7FEE7FEE7FEE7FEE7000005480649064A074B70470000240500403B
:20C3000039C20300C1C003006028002060340020602C0020602C002000F0B3F800F0B1F8B3
:20C32000734901220878504008707249724A01D091607047D160704710B501F035FF10BD07
:20C3400010B56E4C86B01ECC03946C460EC4002803D0684618DF002817D10F20800313DFCF
:20C36000002812D1664B5022664901F09DFD00280BD169460490087404A860DF002804D1AA
:20C38000614801F0ADFD002801D000F07AF806B010BD08B55D48C069B1281CD000245C4962
:20C3A000032008605B480F2140698903884210D101200007006901218902884209D15648BF
:20C3C0000090564B05220321002001F071F9002803D000F056F80124E1E750490120143939
:20C3E00001F0C8FC0028F4D149494D482C39086000F0B8FC00F0FDFC012500280ED000F0FE
:20C4000007FD0028E5D120466840FFF799FF00F050F800F026FD0028DBD105E0204668408C
:20C42000FFF78EFF00F045F8334800690006C00F04D0002020433B4C07D101E00120F9E7FB
:20C44000A06800F0D9FB002812D1374A0121684601F081F9012100224903009801F0C2F975
:20C46000FF203DDF0028B4D100F08DFC0028B0D1A06800F0C1FB0028ABD0A06800F08FFCD8
:20C48000A7E7BFF34F8F2A492848C860BFF34F8FFEE71CB501910090264A0821684601F0D3
:20C4A00059FB1CBD10B50021234A084601F052FB10BD144A10B550321421082001F036FB7F
:20C4C000002801D0FFF7DDFF10BD10B50246082901D0FFF7D6FF11685068884710BD10B558
:20C4E000002901D0FFF7CDFF01F0A0FC10BD0000042000200000040000050050E0F50300B1
:20C50000A5C403005423002039C3030000050040480700500010001093C403001421002066
:20C520000C0003000030000021C303000400FA0500ED00E0CBC40300DFC4030070B5FC4D5F
:20C540001E46AB6988B01446002B22D028468068022902D004291CD105E0052819D13246D3
:20C560002146032014E0022813D11822F14902A8FFF746FE069807990090019102A80FC8F6
:20C5800000F074FB0320A860AB693246214602209847200004D0E74A5D212432FFF7BCFE74
:20C5A00008B070BD4CB5E24E0120307006200195009400F05BFB4CBD10B5DD4C2078002857
:20C5C00001D0082010BD206901F060F9002804D0D84A80212432FFF79FFE4B21002249043F
:20C5E000206901F0FFF8040004D0D24A83212432FFF792FE204610BDCD4910B5CC482431DF
:20C60000416102218160C168243001F0E4FF002804D0C84A99212432FFF77EFE10BDC449B9
:20C62000C3481C314161032181608369002B03D00022114602201847704700B5BC4987B06F
:20C6400049886A4611810321090389680691BA4901204A6803928A680492C9680591069AB5
:20C660000091019202A90EC900F000FB002007B000BD30B5B04CAE4887B02430E16801F0F9
:20C68000AAFF002804D0AB4AF3212432FFF744FEA748E2681C3041680023083001F06BFF7A
:20C6A00005000DD1A249019049886A461181E1680591069A0091019202A90EC900F0D6FA23
:20C6C000284607B030BD00B5994987B049886A461181994903204A6803928A680492C96862
:20C6E0000591069A0091019202A90EC900F0BEFA0020BCE7F0B58F4A91B0183207CA02AB6C
:20C7000007C303263603B0680F218903091A4A080121C902864C511A4718002565702146BA
:20C720006580243102A801F00AFF002829D121462431B068486024390A46526ACA610F21B9
:20C740008903091A4A080121C902511A401821461C31486005A800F099FB0798FE2802D103
:20C760003868401C15D00F20B1688003401A41080120C002091A6E481C3001F02CFF00281E
:20C7800002D0A56011B0F0BD0DA90EC9052000F06DFA6748694A0021103000F0DCFF002895
:20C7A00005D0644AFF2124324C31FFF7B5FD4B2100224904206901F015F8002805D05D4A55
:20C7C000FF2124325031FFF7A7FD01206560A0600020D7E756498861704770B54268564858
:20C7E000146853689168D26804604360C26081600078440701D5840705D19C0703D18C07C1
:20C8000001D1940701D0062070BD5B189A18484D0F239B02EA60994217D84949494CC307F9
:20C8200009D08868ED218902081A90420DD346482060464812E089680F239B03591A0123DC
:20C840004908DB02C91A914201D20C2070BD40492160800701D53F4800E03F486060A868A3
:20C86000012802D00826304670BDFFF7A5FE0600FAD12168E8688847F5E770B5050004D000
:20C88000287A800703D0102070BD0E2070BD284CA068032805D0042803D0052803D0082041
:20C8A00070BD0520A0606868E168860060688019884204D90020C04360600C2070BDFFF74D
:20C8C0007BFE0028FAD1A96832466368606901F052FE0028F2D1616889196160E26891425A
:20C8E000ECD0092070BDF8B5114C0546A068032802D0042805D101E00420A06060680028D5
:20C9000001D00820F8BDFFF757FE0028FAD10A4B0021103308E0AA688E009659627897008A
:20C92000521CDE516270491C6A688A42F3D8F8BD08200020F0F50300F4240020A5C5030030
:20C940000030000034200020F9C503003BC603001FC60300C7C6030073C6030070B5914CB8
:20C96000A068052805D10620A060E1686068884201D0082515E0FFF71FFE050011D16069F5
:20C9800000224068E16801F02DFA6080864962780988002A03D0884201D00B2070BD07203B
:20C9A000A060284670BD10B57E488168072901D0082010BD006900F069FF002803D07B4AF1
:20C9C0007B49FFF7A9FC77482C304068804710BD1CB507200195009400F048F91CBDF8B5C8
:20C9E0001C4617460D46064600F0C7F800289ED001200003854207D92346291B301B1A4671
:20CA0000FFF7EDFF002892D13A462946304600F0BFF800288BD13A462946304600F0ADF81F
:20CA200085E7F0B589B0684600F030FA049800282AD001210903079A4018904226D9501AC4
:20CA400045081046049A0C46871802466800161800190890032000038068049988420DD2C1
:20CA600061190846042200F093F800280CD121460422084600F08CF8002805D1BA1B2B46B5
:20CA800030460899FFF7ABFF09B0F0BD049A079800F07EF8F8E700B58DB004A800F0F6F97A
:20CAA000099800280DD0089800280CD008990B9840180190002109980091800802906846E4
:20CAC00018DF0DB000BD0320000380680F218903091A01224908D202891AE9E700B58DB04B
:20CAE00004A800F0D3F909980028EAD00F210898890300280CD0089A0B98019180180290EA
:20CB000003220998009280080390684618DFD8E703200003806801230A1A5208DB02D21AC5
:20CB2000EBE730B591B0684600F0B0F90498002814D001210903079A4018904214D9501ABE
:20CB400043081046049A5C0082180019611803242403A468049DAC4202D20E2011B030BD75
:20CB6000121AFFF73CFFF9E703200CAB07C3049880080F900CA818DFF0E71FB50323019004
:20CB80009008039000930291684618DF04B010BD1FB5012301909008039000930291684696
:20CBA00018DFF3E7082000200425002014F603006902000010B5C4480368012B02D1022935
:20CBC00000D10160100003D0C04A4221FFF7A4FB10BD10B5BC4C40DF002803D0BB4A542110
:20CBE000FFF79AFB01F02CF82068022803D0032801D00428EFD110BD38B50068401C19D0C1
:20CC00000024684600F06EF900980168012910D1818800290AD0C16803200003806800227A
:20CC200001F0E0F800998988814201D1012400E00024204638BD10B50446A3482021001D10
:20CC400001F043FC002803D0A04A8921FFF764FB9D48002320222146001D01F0A5FB002839
:20CC600003D09A4A8F21FFF757FB10BD0FB438B5684600F037F96846818A049D9448012261
:20CC8000FF23914C002D20D0012D24D0032D38D00021022D44D02A46062D49D01346FE2285
:20CCA000042B4FD01946052B53D0072909D101F0F4FD002803D0854AED21FFF72DFB04206E
:20CCC000206038BC08BC04B018478180089983600260C16010E08180079D06994919089DC6
:20CCE0004919C160A52183600160069901610799856141610999C16122607548FFF79BFFEB
:20CD0000DFE700990B6803608B888380C968C160AA2181600699016107994161089905E001
:20CD200081800360C1600161836041618161E3E701F0B3FD002803D0644AD321FFF7ECFAC1
:20CD40000320BDE781800260C160009989688160D3E700990B6803608B888380C9688260CB
:20CD6000C160CAE70EB55B480090202001900120029001F07FFA002804D153496846091D90
:20CD800001F0A1FA0EBD10B5FFF7B4FC002805D101F08CFE0446FFF71CFF204610BD70B5A5
:20CDA00011DF002804D0FF21484A3B31FFF7B4FA494900200B68484C012180340A46824024
:20CDC0001A4204D0C506ED0E0A46AA402260401C2028F3D303242403A06813DF002804D0F3
:20CDE000FF213A4A4031FFF797FAA06800F076F870BD08B5684600F075F800980168A5296D
:20CE000004D08068AA2801D0002008BD012008BD10B5FFF786FE002803D1FFF75FFE002832
:20CE20001ED0642001F00EFCFFF7FBFD002804D0FF21264A6531FFF76FFAFFF772FE002888
:20CE400004D0FF21214A6831FFF766FAFFF723FE040004D0FF211D4A6B31FFF75DFA2046BF
:20CE600010BD00B5194989B01822183902A8FFF7C7F9069807990090019102A80FC8FFF7D3
:20CE8000F5FEFFF7A6FE002009B000BD10B50E4988B0044600232022091D684601F0C7FAE6
:20CEA0000098206068468088A0800398E0600298A06004982061059860610698A061079856
:20CEC000E06108B010BD00003C20002080F6030044250020B5CB030000E100E010B5FFF70F
:20CEE0005FF910BD014901607047000000FC030030B585B0002822D00388FA4CA34220D0D2
:20CF0000F94B1B78002B1CD0F74B10255B1C1D705970002401259A70032269460A82009497
:20CF2000019402940394C2890A808D708C8004A90291039300886946A6DF05B030BD0E20EF
:20CF4000FBE70820F9E7F0B589B004460227684607700D468783608A08AB07AA0021A5DF21
:20CF60000026002804D0616A00291AD0884718E06846008CC007C00F13D0684686802088DB
:20CF80006946A8DF002812D1A97E284601221B300B0002F018FB093F0E1E202224263D28D8
:20CFA0003F00FF20FE30694688802088A8DF09B0F0BD0496298B022902D26846067502E041
:20CFC00069460A750690226A04A9204690470020EDE70492F7E70497F5E7032014E00420FD
:20CFE00012E0052010E0298B032905D2032208212046FFF77DFFDAE74178027808021043FC
:20D000006946888202D006200490DCE70720FBE70920F9E70322EBE730B585B00D4604008E
:20D0200032D0002D30D0286800282DD00020C043AE4B20800FCB049301AB07C3AC486946C6
:20D040000880891C01A863DF00281CD1A21C69460120A0DF002816D16846807820712046EA
:20D0600000F0C0F800280ED1204600F0F9F8002809D1286820626868002800D060629A4939
:20D0800001200870002058E70E2056E73EB5002820D000291ED0026A002A1BD00A88102ABE
:20D0A00019D0112A28D0502A17D0512A12D10446891D087802280DD14888E289904209D136
:20D0C000891C2046FFF73FFF002803D0616A002900D088473EBD898810E0CA88C3889A420E
:20D0E000F8D1082200928A7F6B461A7120310291026A694690473EBD0021C94301803EBDEC
:20D10000F0B585B00A4605002DD02888754988422BD075480078002827D0734C1020641CED
:20D120002070072060700127A7700321684601820026E11C104600F04CF801466846008AA8
:20D140000918684601820096019602960396E98901808770868004A80394029028886946FB
:20D16000A6DF05B0F0BD0E20FBE70820F9E7F0B585B00A46050028D028885A49884226D076
:20D1800059480078002822D0574C1120641C20700127684607820026611C104600F019F81F
:20D1A00001466846008A0918684601820096019602960396E98901808770868004A803940D
:20D1C000029028886946A6DFCBE70E20C9E70820C7E70870020A4A70020C8A70000EC870E7
:20D1E0000420704730B58FB005461C21684602F0F6F8694608780421084369460870002430
:20D2000001940394049405940694287908A9887037486946801C0884601C00070794000F4A
:20D220000C77103048778A7FF9200240921CE7200240012002438A77142109A802F0CFF80B
:20D2400008A8099007A80A9069468C851420CC8508860D946888AB1D09AAA2DF0FB030BD30
:20D2600030B58FB005461C21684602F0B8F86946087808210843102210436946087000243F
:20D2800001940394049405940694287908A9887017486946401C0884601C00070794000F2A
:20D2A0000C7710304877887FF9210840801CF721084010430121084369468877142109A833
:20D2C00002F08DF808A8099007A80A9069468C851720CC8508860D942B4668880E3309AA79
:20D2E000A2DFBBE7FFFF000048200020D0F60300301500004B48002101704C484A4A0260C8
:20D300008160C160016108224161426081610846704710B500291DD000220A60434A5368A5
:20D32000002B1BD0202817D85B1E5360D0682423401CD060106914684343E3180B60012364
:20D3400083409169401C19434007400F91611061002010BD0E2010BD0C2010BD042010BD8D
:20D36000F0B5324A0646916800292BD057691020791A4907490F14680B4624254D436519D4
:20D38000B54206D1012495698C4065400020956104E0491C4907490F8F42EED1491C4E07DA
:20D3A000760F956901210C469C402B4623420AD19368002B07D05B1E936053685B1C53609B
:20D3C0003346F0E70420F0BD184A2423117C1268491E4907490F5943203150500020704709
:20D3E00070B500281AD0002918D0104AD368002B16D05B1ED360936824265B1C9360536928
:20D4000015681C467343EE1820330660E858641C08606007400F5061002070BD0E2070BD81
:20D42000042070BD5020002064250020842600208307FF22DB0E9A408907090E9940002882
:20D440000BDA0007000F08388308FF489B001B18D86990430843D86170478308FB489B0039
:20D460001B181868904308431860704770B50124F74960040860F74940108860F549403927
:20D480008860F54D6C602F20FEF79AFEAC60F34D00242F206C61FEF793FE2C7170BDF0B539
:20D4A000EE4F2821BC6841430D1939694A1C09D028224A431619AB68B268934204D8D21A67
:20D4C000B26069623861F0BD0A4602E00A46796A9B1B4E1C0BD028264E433719BE689E4294
:20D4E000F4D328264E433619B768FF1AB760AB60696228214A4311194862F0BDF8B5D74CEB
:20D500002569681C36D0D648002640686169401A07023F0A1AE028204543A0682A18906885
:20D52000B84215D8A3693F1A8619556A002B0AD0116AD0699847002808D0FF21C94A6431E1
:20D54000FEF7EAFE02E0D169106A8847681CE2D1A178E078814206D1401CC0B2E0700228FF
:20D5600001D10020E070BD490006800D1C310E5000F0B4F9F8BDF8B50446B84801690091E1
:20D58000467856E0B548F100C2688D184BE0601C07D0B24A282192686143204689184C6ABC
:20D5A00020E02878182141436A68401CC0B252182870A978884201D100202870A74B50684D
:20D5C00028219B684143C9181368012B2DD10B7E002B2AD19368CB60D3680B6113694B6151
:20D5E00052690A629D4ACF685369BC46FA1A12029D4F120ABA4202D20B69D21809E0624639
:20D600009A1A12020B69120A934201D99A1A00E000228A600022CA600A6101220A76921E59
:20D620004A62FFF73CFF601CB1D1287869788842ADD13046761EF6B20028A3D187480169BF
:20D640000098814201D00120F8BD0020F8BD87490020086048608860C86084494039086035
:20D6600048604BE7F0B5002087B0C04302907B4846690569684600F036F9074600F050F90C
:20D680000446002F08D002AA3146009800F090F90298FFF770FF06E00298FFF76CFF0028FD
:20D6A00001D1002C02D0284600F0ABF907B0F0BDFFB59807002481B01E4615460F46002850
:20D6C0000BD1002E09D0FFF7D1FE64490A9888610F70324600208E6008E0072005B0F0BDF4
:20D6E00028234343D4509B181C76401CB842F7DB28204743BB19032048700F461846CB6069
:20D7000019461830002218232E465E43D3005B181C705C709D7058603018521C032AF5DBDA
:20D720000020C0433861BC70FC70012450482405046003211420FFF77BFE454880380460DB
:20D74000474C0198A06003211120FFF771FE606878610020C2E770B5404CA568002D06D0B8
:20D76000002A06D0002804D00023247809E0082070BD072070BD28265E43AE59002E04D064
:20D780005B1CA342F7DB042070BD282401265C432E516419E26161600360002070BD2A49D5
:20D7A0004868C005C00D17D0103807D50207120F083A920892005118C96904E08108234A0F
:20D7C0008900891809688007C00EC1408804000E012803D0032803D0022070470020704714
:20D7E00001207047FEB504461C48174682680D46002A0CD001788C4201D2052D01D207200A
:20D80000FEBD2146282359435358012B01D00820FEBD88184068012834D00026FFF7BFFF25
:20D82000C0000E490190C9684018694600F02FF9002829D00121446001600949496808306D
:20D84000E2C00649019815E000ED00E000E400E080E100E0401301400010014058200020FA
:20D8600000150140E0F60300FFFF7F004011014080E200E0C96841180098487000F02EF838
:20D880000020FEBD2E46C9E70420FEBDF8B5A14D0446A868002809D029788C4201D307204A
:20D8A000F8BD282161434058012801D00820F8BDFFF775FFC600E8686946301800F0E7F811
:20D8C000002809D0022112C0E86831180098487000F004F80020F8BD0420F8BD01208E49D7
:20D8E00000050860704710B58A4900238A78CC78A24212D0521CD2B28A70022A00D18B7059
:20D900008A78844B92001C339A580260486910180002000A4861012010BD0360002010BD35
:20D92000F8B57C4801690091457833E07948E900C0680E1834782AE0182060437168641CC9
:20D940000818B178E4B2A14200D100240168022902D003291BD113E06E4A406828219268FC
:20D9600041438F18397E002911D000F0A2F8002038760CE028277843C0180276406A03E090
:20D98000644900228B680869471CF3D108617078A042D1D128466D1EEDB20028C6D15D485C
:20D9A00001690098814201D00120F8BD0020F8BDF7B5584C0025A76823691EE02821594333
:20D9C000C9198E68864202D9301A886017E0801B751900268E600E764E699C464B6AB64698
:20D9E000002E0AD0019E76193602360ACE6076460E6116684E6261461160591CDED1236132
:20DA0000FEBDF8B5434801694A1C3DD028225143826889188E6841494C6847690079E11B74
:20DA20000D022D0AED1C002815D101203C4A000450603B4A403A50603749400080310860A6
:20DA4000384908603849012008602F20FEF7B8FB304901200871B54200D23546E819000282
:20DA60002E49000A403108602C494968001B091B0902090A0002C91C000A814203D9012018
:20DA8000254940040860F8BDFFF7F0FCF8BD42788378521C934200D100220378934201D113
:20DAA000002070470A6041684078182250430818704770B5174E3569B26829460C4606E037
:20DAC000844207D0254628235C43A3185C6A631CF6D170BD002BFCD0A54208D128204143DD
:20DAE0008818406A3061401C01D1FFF7BFFCB168282044436018282382685D43406A6B180A
:20DB00005862431CE5D028235843401881688918816070BD5820002000E200E000150140B1
:20DB20004013014000E100E00010014030B5CB0008339DB293070024002B01D0072030BD37
:20DB4000564B9A605219DA605C701C7058809980002030BDF7B5514C82B060880F468142B4
:20DB60006CD80020694608704E494D4D4868C005C00D16D0103807D50207120F083A920897
:20DB800092005118C96904E08108474A8900891809688007C00EC1408804060E012E01D1C8
:20DBA0000AE0042668462EDF02280BD0002803D03E4A5921FEF7B0FB6078A188884203D254
:20DBC000401C02E072B6F7E700202278C0B2904207D065786078884201DA401C00E0002076
:20DBE0006070012E0BD062B6684600782FDF022805D0002803D02D4A6121FEF78DFB28481F
:20DC0000854219D0A068EE0004998151029900290CD0002F0AD060883A464543E0682818CE
:20DC200001F07EFBA0683018878002E0002130188180002005B0F0BD0420FBE70920F9E746
:20DC40000EB504E068468188029A0098904702AA01A9684600F003F80028F3D00EBD70B591
:20DC60000E4B05245D781E78B54215D01D781C789E88B44201DA641C00E000241C705C88C7
:20DC8000DE686C43A41904609B68E800C418A4880C80185800241060204670BD7C2000209C
:20DCA000FFFF000000ED00E000E400E02CF70300F0B500220123032636041F4697400C46D3
:20DCC0003C420FD0C5682C463C420FD03446BD43C5603C4D97007D192F68B7432F602F68DF
:20DCE00027432F60521C202AE7D3F0BD012464043D43EDE7F8B53448056934490020C863CC
:20DD0000074632E014213A464A434168806854180121B940014226D0E068C64320686E408A
:20DD2000064031462046FFF7C3FF2748006968400CD00543E0682168C04368400840014659
:20DD400000902046FFF7B4FF009806433046A168A84301402A4660683240104002460A4309
:20DD600001D0226990477F1CFFB2194841788F42C8D3F8BD10B5002903D08A070024002A49
:20DD800001D0072010BD124A0B46516010701421547041431846946001F021FB00200D498E
:20DDA000C04388600C48402101600C4A1068FF231B0498430B0418431060094801600020CC
:20DDC00010BD00000007005000050050406100408C2000200063004080E200E004E400E070
:20DDE00000E100E010B50446002A02D01088002210E00A48FBE7030A00020343A05C584090
:20DE000003061B0F43401803584083B21806C00C5840521C8A42EED310BD0000FFFF00001C
:20DE200010B508461146FEF779FA10BDF8B5394C2078002837D02069002807D00026E06854
:20DE4000002805D00025002E04D013E00126F6E70125F8E7684651DF052806D0002806D0C3
:20DE60002D4A6921FEF758FA04E0012602E0216900988847002D12D1608869460880A06845
:20DE800061DF052806D0002806D0234A8021FEF743FA04E0012502E0E168A0688847002EC7
:20DEA000D8D0002DCFD0F8BD70B5002901D08C0701D0072070BD174C0125A1606280174996
:20DEC000636010DF0028F5D12570162026DF70BD002803D00F49C860002070470E2070476E
:20DEE000002803D00B490861002070470E20704710B508484068002808D08047002804D02E
:20DF0000FF21054A3331FEF707FA10BDFFF78EFF10BD0000982000207CF7030021DE0300CB
:20DF200018225043FE4A00218018017181604161012281610261C1607047FFB581B0F94CB4
:20DF4000049B039A054626691A4303200092002E03D1002A0ED0012222612769039A012695
:20DF6000360792003B0001F02EFB072707162940526127000222EFE77069326992B25043AA
:20DF8000326933691204920C9BB2594321DF002812D102210FE0084620DF00280CD10399A2
:20DFA000002901D0032106E00499002916D12978042946D017E0216105B0F0BD706932697D
:20DFC00092B25043326993B24B4301461846039A21DF0028F0D10499002901D00421EAE744
:20DFE0002978042920D00521E5E773693069366980B2434368681B189B18B6B24E433018AE
:20E0000080181946049A21DF0028E9D0D4E7306980B24843696880188A08696921DF002884
:20E02000CAD1009900290CD00621C4E77069316989B24843316989B201F0E4F920DF0028D2
:20E04000BAD10721B7E7F8B5B54918230A780F205A435418241DB34922782669CF68022A06
:20E060001BD001252D07042A2AD0052A5BD1286981B2304601F0C6F90146A36828699A1958
:20E0800080B24843101A820860681818861928694B1C80B25843801B34E0B80262686169B6
:20E0A000121A0918A3683018181801239B029A4202D2920821DF31E0FF22013221DF2DE013
:20E0C000E268974914205043F4314018001D0BC8B04203D160685943814218D0022A16D0FB
:20E0E000286981B2304601F08DF90146286980B24843301A820828694B1C80B25843636876
:20E100009B19C01A83082046FFF717FF06E0286981B2304601F076F9C01920DF002802D121
:20E120007F4901228A70F8BDF8B57D4C069E65780A2D1DD027787D19EDB20A2D01D30A3D04
:20E14000EDB218277D432D192871AA6103C9EE60AB6069612861A1780020002904D1FFF792
:20E1600072FF112800D100206178491C6170F8BD0420F8BD38B50246694818230178594331
:20E18000081803690179022B0AD014246343644CF434E4588368009383691030A04738BDFA
:20E1A000604B14331C68F5E7F8B55D4B9978012914D100255B499D700A69082A05D002281E
:20E1C0000FD003280AD10D2006E0022807D00D7000F025FA002801D0FFF7CCFFF8BD0D61DD
:20E1E000F6E74F48182403784E496343CC681818641C001DCC600378022B05D14668A102BB
:20E20000B14201D3012700E00027052B01D1072A03D00021042B02D003E00121FAE7072AC9
:20E2200003D00026042B02D007E00126FAE74068A302834201D3002A1AD000203143014323
:20E240003943C5D0374E28463561FFF793FF344C2078FFF765FEF5606078401E6070207838
:20E26000401CC0B220700A28B2D30A382070AFE70120E3E770B500252A4C2948E56025613A
:20E280000570457085702E463046FFF749FE761C0A2EF9D3012212076560516928461269FE
:20E2A000491E92B25143E560A1601D49F4310D608D600D61CD601B4914310D608880012119
:20E2C0002170206170BDF8B5164A044610780E46002830D0002C30D0002E2ED0206800289C
:20E2E0002BD0012000076768016989B28F4228D8102F26D3A168002923D0956879434369F4
:20E300004A19006980B243439A421AD801200007006980B2814212D901200007006903E0C6
:20E32000A0260020AC20002080B2394601F06AF8002906D103E00820F8BD0E20F8BDB807A5
:20E3400001D00720F8BDBD49486801281CD00F461421BB4A21C641438E18756023685350A2
:20E360006168B160A168F160A268616800235143012212075B1C14699BB2A4B28C4205D267
:20E380001469A4B2091B02E00420F8BD00211469A4B265191469A4B28C42EBD9BD60401C7B
:20E3A000336178600020F8BDF8B50446A3481E46007815460F46002807D0002F07D0002C7D
:20E3C00005D02068002817D103E00820F8BD0E20F8BD9B48016800290ED0C268816840681F
:20E3E0004A4310186268904206D9002D04D0A94202D3A819884201D90720F8BD384600F07D
:20E4000008F9002811D0304600F003F900280CD0606800F0FEF8002807D02B463A46214687
:20E4200002200096FFF780FEF8BD1020F8BDFFB5824881B000781F4616460D46002808D0DB
:20E44000002D08D00198002805D02868002817D103E00820B0E50E20AEE5794C20680028AB
:20E460000ED0E168A0686268414389186A68914206D9002E04D0B04202D3F119814201D98A
:20E48000072099E5019800F0C4F800281BD0384600F0BFF8002816D0686800F0BAF80028B2
:20E4A00011D068683246C119019800F039FF00962868142148432458002203212846019BE6
:20E4C000A047002078E5102076E5F8B505465B480F460078002805D0002D05D0286800282E
:20E4E00021D103E00820F8BD0E20F8BD544C00262068002817D0A168E0684843616841182C
:20E50000686881420FD900F084F800280DD0296814225143091968684A688968801A00F095
:20E5200071FF002903D00720F8BD1020F8BD3B460022294604200096FFF7F6FDF8BD3F4ABB
:20E540001278002A0DD000280DD000290BD00268002A08D0394A14321368002B05D004204D
:20E560007047082070470E20704702230B600068106000207047F8B5044630481E46007896
:20E5800017460D46002807D0002D07D0002C05D0206802281BD103E00820F8BD0E20F8BD86
:20E5A000264814300068002811D0084600F031F800280ED0304600F02CF8002809D03B46BF
:20E5C0002A46214602200096FFF7AEFDF8BD0720F8BD1020F8BD08B5184A1278002A05D0ED
:20E5E000002805D00268022A11D103E0082008BD0E2008BD114A14321268002A07D00B4676
:20E600000022014604200092FFF78EFD08BD072008BD800701D00020704701207047084951
:20E6200010B5F43949780020002906D0FFF70BFD002802D0112800D1002010BDAC2000202D
:20E640009427002031B5054C04E0401E00902046FDF7C6FD00980028F7D138BDE703000052
:20E6600008280CD004DC002807D006280FD108E00B280AD00C280AD105E0012070470220BE
:20E6800070470320704704207047042901D0062070470520704710B50B46022819D0032803
:20E6A00016D100290BD0F948F949808888420FD0132176DF00280BD0F64AA42106E010466E
:20E6C000FEF74EFE002803D0F24AAA21FDF724FE10BD01211846FFF7C3FF02460121EE483C
:20E6E000FEF706FC0028F3D0EA4AB521EEE710B50A46044603211046FFF7B2FF024603216D
:20E700002046FEF7F5FB002803D0E24ACF21FDF703FE10BD30B5054687B00020009001902D
:20E7200002900390D9486A46C0781070D94A0C3A10689268049068460692059008790C282C
:20E7400025D0042809D0032201212846FEF7D0FB00281AD0CF4AED2115E0886800F0D9F96A
:20E76000039004A8FEF739F800280ED00121FFF777FF024601212846FEF7BAFB002804D022
:20E78000FF21C44A0E31FDF7C7FD07B030BD8C68204600F0BEF90190201D00F0BAF90290AC
:20E7A00020460830DAE7F0B5054608790E4685B081070AD0032211462846FEF799FB002803
:20E7C0001FD0FF21B34A543143E0B04900901431FEF79FFD010011D1AC4CB168009A6069CF
:20E7E00000F09EFD0098FEF7EFFD010006D1204669461430FEF7F4FD010004D02846FFF7C5
:20E8000076FF05B0F0BD032001900098800802906069039001A8FEF730F807000BD0092F7F
:20E820001AD06069FEF79CFD010002D02846FFF75EFF3946E2E7307921690122401820618C
:20E8400003212846FEF754FB0028DAD0FF21914A8431FDF761FDD4E7307921694118216145
:20E8600060780028CDD02089401E0004000C2081C7D12846FEF77BFC002804D0FF21854AE6
:20E880009531FDF749FDE0882081BAE710B5FF21804AD031FDF740FD10BD10B57B487C49D3
:20E8A0008088884208D0132176DF002806D0794A7A49FDF731FD01E000F086F900F071FAD4
:20E8C000002804D06D21734AC900FDF725FD002010BD70B50D68044601206C4A2B0000F04F
:20E8E00072FE0A2F393B0615234F543E5822FEF735F80421FFF7B4FE024604212046FEF7AB
:20E90000F7FA00280FD0634A65494BE0FFF7C5FF002804D062495F4A491DFDF7FDFCFEF727
:20E9200042F8002809D170BDFFF7B7FF002804D05B49584A1231FDF7EFFCFEF749F870BDFB
:20E94000D0600879002803D088680078D07070BD0420FBE7022000E00320D06070BDD26874
:20E960002046012A06D0022A07D0032AF6D1FFF71AFF70BDFFF7CEFE70BD00F0D4F870BD25
:20E9800050708888D080108170BD00205070D08070BD20461169FEF7B3FB0028F8D0404940
:20E9A0003C4A3C31FDF7B8FC70BD10B5374CA07800280ED13848143873DF002804D02521C8
:20E9C000344A0901FDF7A8FC0120364A01029160A07010BD70B52D4C0588A388132D2CD013
:20E9E0000ADC314A2F49102D18D0112D15D1CA60207800281BD01CE0522D29D0552D0CD14D
:20EA00008079002809D11321184676DF002804D02349204A9831FDF77FFC70BD8A60FF22D2
:20EA20000132CA608088A0800020A07070BDFFF7BCFF0020C043A08070BD144A18461832CD
:20EA400000217FDF0028F7D01549124A9031E2E7002211461846A9DF0028EDD010490D4A10
:20EA60009E31D8E710B5044600F0CCF921460A48FEF70CFB2046FFF7ADFF10BD074910B5A5
:20EA8000044A4E39FDF748FC10BD0000C8200020FFFF0000DCF70300BC2700205F0300005B
:20EAA0000102000000050050000200001CB586490020C860854903200860091D0860834961
:20EAC0001C3108608248FFF703FA002820D18148FDF780FEFEF70EFC002819D100F087F8F0
:20EAE0007D4800907D48019069467D48FEF794FA002804D0C9217B4A8900FDF70DFC00F053
:20EB00009BF800F040F800F0CDF8FFF74EFF00201CBD10B5044600F064FC0002E178000A85
:20EB200009060843B0E7FEB5044601200090886802900879002283070ED08007800F04226D
:20EB4000121A0020034605E00E79029D3618B600AB51401C9042F7D30879801880080190EB
:20EB60006846FDF7C0FE0221FFF77AFD024602212046FEF7BDF9002804D0FF21594A4031F9
:20EB8000FDF7CAFBFEBD00B587B01C21684600F026FC5549019101218903002002910090F7
:20EBA000032269460A73C881087405904F480690684600F0D2F8002804D0FF21494AE7314E
:20EBC000FDF7AAFB07B000BD10B53F4CA07800280CD074DF002803D0424A4549FDF79CFBC9
:20EBE000FF2044490130C8600020A0704CE70EB511206946087207223FA102A87CDF00285A
:20EC000004D03B49374A7131FDF786FB002000900C22694601900A8018224A808880FF2031
:20EC20009130C88068467ADF002804D030492D4A7B31FDF771FB0EBD10B592B00621684625
:20EC4000017127480179684681702D4901803C2102A800F0C4FB02200290002468464473D0
:20EC60000121018201A80590684681830890214602A800F037FA002804D01D49194A9931A6
:20EC8000FDF74AFB16481421143800F0A8FB1448FF21143804704460047291310182448268
:20ECA00012B0F1E608491E2018310880887801221043E12210400C30DF22104088700720E6
:20ECC000C870102008717047C82000202007005065EA030097E60300D3E803007DEA030023
:20ECE000BC270020DCF70300CD0C00008DE803006202000000050050446675546172670084
:20ED00003015000038B56749674A488890420FD04A78664C521CD2B24A70237B934208D371
:20ED2000083175DF002803D0A169002900D0884738BD00254D70217C002907D03B2176DF54
:20ED4000002803D0A169002900D0884761690029EED068460095884738BD70B50546014677
:20ED60001C225248FDF74CFA4E4C002626702968002907D00822A01800F0D2FA204608305E
:20ED80007ADF02E0474808307BDF002808D1401E608044486670464A0021001DFEF7DBFCDC
:20EDA00070BD10B53F484068FEF770FD10BDF8B53C48103000F069F800263A4D3B4C0028E5
:20EDC00006D06169002919D001200090684614E02878002804D0616900290FD00096F5E74E
:20EDE000687800280CD0A16800226868FEF7FAFC002803D0A169002900D088472E70F8BD29
:20EE00006168F1E7F8B5294C02880027254DE689102A18D029464968112A21D0122A2DD0F6
:20EE2000502A0FD1801D0288B2420BD1028B022A08D1C27E837E10021843C007C00F13D0C8
:20EE4000FFF7B5FFF8BD818869800146154808220E31103000F064FA6F70002EF0D0F8BD44
:20EE60000020C04368806F700846FEF70FFD0028F5D0A1690029F2D08847F8BD811D094804
:20EE80000822103000F04CFADAE74188054808300288914204D34088814201D80120704753
:20EEA00000207047E8200020FFFF0000E427002005ED0300FFB583B0074600200C9C86466D
:20EEC000267805463AE07868A90041180A88684682804988C1800022694601A865DF002813
:20EEE00010D1684601780598814226D17046002801D0002200E002222078891841181F2904
:20EF000002D90C2007B0F0BD7146002908D1401CC0B2411C069B049A21701A540120864677
:20EF2000217806980A18694601A865DF0028E9D1694620780978401820706D1C3888A84217
:20EF4000C1DC7046002804D020780699801B401E88550020D6E7F8B51546069C1E4607461D
:20EF600002220094FFF7A6FF002806D133461022294638460094FFF79DFFF8BDF7B582B0EE
:20EF800000260546167000681446002805D02846039900F0DFF806002DD1687900281BD0F2
:20EFA0002078039F001D1F2824D8684679DF002821D121780322481C20707A542178192243
:20EFC000481C20707A542078C1196846008800F0BCF82178401820702989002923D00120B3
:20EFE0008446EA680398002A07D0227853189B1C1F2B04D90C2005B0F0BD0720FBE7134686
:20F00000521C491C2270C15422786746511C2170875423782A891818E96800F081F9207885
:20F02000297A401820702869002815D00021415622788C46D01C03991F28DBD8501C022370
:20F0400020708B5422780A23501C20708B5420786246431C23700A54A88A002809D028466E
:20F060000094062202211430039BFFF774FF0600C1D1A88B002809D028460094072203214B
:20F080001C30039BFFF767FF0600B4D1A88C002809D028460094152214212430039BFFF714
:20F0A0005AFF0600A7D1E86A002805D02246039900F085F806009ED1286B002805D022464C
:20F0C000039900F0BBF8060095D13820405D002806D022462846039900F0E2F806008AD1F5
:20F0E000304688E770B50D4692B000216A46117007241171002812D00189002905D0C168B7
:20F10000002902D00978490702D4204612B070BD02A9FFF733FF0028F8D102AE00E000267E
:20F12000002D0BD028890028EFD101AA0AA92846FFF724FF0028E9D10AAA00E00022684603
:20F1400003790178304672DFE0E70870000A487002207047F8B514780746A01C15460E4628
:20F160001F2803D83879801C1F2801D90C20F8BD1D20001B80B26946864608803019801CAC
:20F180007DDF0028F3D13868022805D168460088704501D8092107E038790821002801D0DF
:20F1A000704501D968460088421C3255641CE2B2B1542978801C081828700020F8BDF8B515
:20F1C0000D4611780646881D14461F2801D90C20F8BD33880720062BFAD31927FF01BB42E9
:20F1E00002D94E4A9342F3D17288062AF0D3BA4202D94A4FBA42EBD1484FBB4203D0BA428B
:20F2000001D09342E4D8481C052220706A5420781222411C21702A54207841193088FFF7DB
:20F2200094FF21784018C0B2207041197088FFF78CFF2178401820700020F8BD70B50546AF
:20F2400000790E46801C1446C0B21178821C8A181F2A01D90C2070BD0A46491C401C217092
:20F26000B0542078FF22411C21703254207881192888FFF76AFF21784018C0B22070AA88F7
:20F28000002A09D0A968002908D0801900F048F82078297940182070002070BD072070BDCD
:20F2A000F7B582B002981446406B0F46002832D0029800252030009028E00298416B0C2039
:20F2C00068430E18217830794A1CC01C2270785421781622481C20707A542078C1193088BE
:20F2E000FFF733FF21784018C0B22070B288002A09D0B16800290ED0C01900F011F820782C
:20F300003179401820706D1C0098EDB2007EA842D3D800206FE607206DE60000FFFF00009B
:20F32000F8B5042A2CD3830712D00B78491C0370401C521E83070BD00B78491C0370401C44
:20F34000521E830704D00B78491C0370401C521E8B079B0F05D0C91ADF002023DE1B08C9D8
:20F360000AE0FCF74DFFF8BD1D4608C9FD401C46B4402C4310C0121F042AF5D2F308C91AA5
:20F38000521EF0D40B78491C0370401C521EEAD40B78491C0370401C521EE4D40978017083
:20F3A000F8BD01E004C0091F0429FBD28B0701D50280801CC90700D00270704700290BD07E
:20F3C000C30702D00270401C491E022904D3830702D50280801C891EE3E70022EEE7002251
:20F3E000DFE70378C2781946437812061B0219438378C0781B04194311430902090A0006C1
:20F4000008437047002203098B422CD3030A8B4211D300239C464EE003460B433CD4002236
:20F4200043088B4231D303098B421CD3030A8B4201D394463FE0C3098B4201D3CB01C01A2E
:20F44000524183098B4201D38B01C01A524143098B4201D34B01C01A524103098B4201D3A0
:20F460000B01C01A5241C3088B4201D3CB00C01A524183088B4201D38B00C01A5241430800
:20F480008B4201D34B00C01A5241411A00D201465241104670475DE0CA0F00D0494203107B
:20F4A00000D34042534000229C4603098B422DD3030A8B4212D3FC22890112BA030A8B427A
:20F4C0000CD3890192118B4208D3890192118B4204D389013AD0921100E08909C3098B4265
:20F4E00001D3CB01C01A524183098B4201D38B01C01A524143098B4201D34B01C01A524133
:20F5000003098B4201D30B01C01A5241C3088B4201D3CB00C01A524183088B4201D38B006A
:20F52000C01A5241D9D243088B4201D34B00C01A5241411A00D20146634652415B1010469E
:20F5400001D34042002B00D54942704763465B1000D3404201B50020C046C04602BD704752
:20F5600070477047754600F023F8AE46050069465346C008C000854618B020B5FCF7B8FE7D
:20F5800060BC00274908B6460026C0C5C0C5C0C5C0C5C0C5C0C5C0C5C0C5403D49008D46F4
:20F5A00070470446C046C0462046FCF7D6FD0000004870470028002001491820ABBEFEE7FB
:20F5C00026000200704730B47446641E2578641CAB4200D21D46635D5B00E31830BC18478C
:20F5E000020000000000000000000000000000000400000000000000000000000000000005
:20F6000000000000000000003DC5030000000000000000002E2E5C2E2E5C2E2E5C6C696286
:20F620005C73646B5C6E726635315F73646B5F76365F315F305C6E726635313832325C5306
:20F640006F757263655C626F6F746C6F616465725F6466755C6466755F6475616C5F6261A5
:20F660006E6B2E63000000000200000000000000000000000000000000000000000000001E
:20F680002E2E5C2E2E5C2E2E5C6C69625C73646B5C6E726635315F73646B5F76365F315FCA
:20F6A000305C6E726635313832325C536F757263655C626F6F746C6F616465725F64667584
:20F6C0005C626F6F746C6F616465722E6300000023D1BCEA5F782315DEEF12120000000078
:20F6E0002E2E5C2E2E5C2E2E5C6C69625C73646B5C6E726635315F73646B5F76365F315F6A
:20F70000305C6E726635313832325C536F757263655C6170705F636F6D6D6F6E5C61707026
:20F720005F74696D65722E63000000002E2E5C2E2E5C2E2E5C6C69625C73646B5C6E726619
:20F7400035315F73646B5F76365F315F305C6E726635313832325C536F757263655C6170DA
:20F76000705F636F6D6D6F6E5C6170705F7363686564756C65722E63000000002E2E5C2EFF
:20F780002E5C2E2E5C6C69625C73646B5C6E726635315F73646B5F76365F315F305C6E7243
:20F7A0006635313832325C536F757263655C73645F636F6D6D6F6E5C736F66746465766939
:20F7C00063655F68616E646C65722E63000000000200000000000000000000002E2E5C2EAB
:20F7E0002E5C2E2E5C6C69625C73646B5C6E726635315F73646B5F76365F315F305C6E72E3
:20F800006635313832325C536F757263655C626F6F746C6F616465725F6466755C646675F3
:20F820005F7472616E73706F72745F626C652E630000000054F803000020002000010000C9
:20F8400004C1030054F90300002100206013000020C103000024F4000000000000000000E0
:20F86000000000000000000000000000000000000000000000000000000000000000000088
:20F88000000000000000000000000000000000000000000000000000000000000000000068
:20F8A000000000000000000000000000000000000000000000000000000000000000000048
:20F8C000000000000000000000000000000000000000000000000000000000000000000028
:20F8E000000000000000000000000000000000000000000000000000000000000000000008
:20F900000000000000000000000000000000000000000000000000000000000000000000E7
:20F92000FFFF000000000000000000000000000000000000000000000000000000000000C9
:20F940000000000000000000000000000000000000000000FFFFFFFFFFFFFFFFFFFFFFFFB3
:20F96000FFFFFFFFFFFFFFFFFFFFFFFFFFFFFFFFFFFFFFFFFFFFFFFFFFFFFFFFFFFFFFFFA7
:20F98000FFFFFFFFFFFFFFFFFFFFFFFFFFFFFFFFFFFFFFFFFFFFFFFFFFFFFFFFFFFFFFFF87
:20F9A000FFFFFFFFFFFFFFFFFFFFFFFFFFFFFFFFFFFFFFFFFFFFFFFFFFFFFFFFFFFFFFFF67
:20F9C000FFFFFFFFFFFFFFFFFFFFFFFFFFFFFFFFFFFFFFFFFFFFFFFFFFFFFFFFFFFFFFFF47
:20F9E000FFFFFFFFFFFFFFFFFFFFFFFFFFFFFFFFFFFFFFFFFFFFFFFFFFFFFFFFFFFFFFFF27
:20FA0000FFFFFFFFFFFFFFFFFFFFFFFFFFFFFFFFFFFFFFFFFFFFFFFFFFFFFFFFFFFFFFFF06
:20FA2000FFFFFFFFFFFFFFFFFFFFFFFFFFFFFFFFFFFFFFFFFFFFFFFFFFFFFFFFFFFFFFFFE6
:20FA4000FFFFFFFFFFFFFFFFFFFFFFFFFFFFFFFFFFFFFFFFFFFFFFFFFFFFFFFFFFFFFFFFC6
:20FA6000FFFFFFFFFFFFFFFFFFFFFFFFFFFFFFFFFFFFFFFFFFFFFFFFFFFFFFFFFFFFFFFFA6
:20FA8000FFFFFFFFFFFFFFFFFFFFFFFFFFFFFFFFFFFFFFFFFFFFFFFFFFFFFFFFFFFFFFFF86
:20FAA000FFFFFFFFFFFFFFFFFFFFFFFFFFFFFFFFFFFFFFFFFFFFFFFFFFFFFFFFFFFFFFFF66
:20FAC000FFFFFFFFFFFFFFFFFFFFFFFFFFFFFFFFFFFFFFFFFFFFFFFFFFFFFFFFFFFFFFFF46
:20FAE000FFFFFFFFFFFFFFFFFFFFFFFFFFFFFFFFFFFFFFFFFFFFFFFFFFFFFFFFFFFFFFFF26
:20FB0000FFFFFFFFFFFFFFFFFFFFFFFFFFFFFFFFFFFFFFFFFFFFFFFFFFFFFFFFFFFFFFFF05
:20FB2000FFFFFFFFFFFFFFFFFFFFFFFFFFFFFFFFFFFFFFFFFFFFFFFFFFFFFFFFFFFFFFFFE5
:20FB4000FFFFFFFFFFFFFFFFFFFFFFFFFFFFFFFFFFFFFFFFFFFFFFFFFFFFFFFFFFFFFFFFC5
:20FB6000FFFFFFFFFFFFFFFFFFFFFFFFFFFFFFFFFFFFFFFFFFFFFFFFFFFFFFFFFFFFFFFFA5
:20FB8000FFFFFFFFFFFFFFFFFFFFFFFFFFFFFFFFFFFFFFFFFFFFFFFFFFFFFFFFFFFFFFFF85
:20FBA000FFFFFFFFFFFFFFFFFFFFFFFFFFFFFFFFFFFFFFFFFFFFFFFFFFFFFFFFFFFFFFFF65
:20FBC000FFFFFFFFFFFFFFFFFFFFFFFFFFFFFFFFFFFFFFFFFFFFFFFFFFFFFFFFFFFFFFFF45
:20FBE000FFFFFFFFFFFFFFFFFFFFFFFFFFFFFFFFFFFFFFFFFFFFFFFFFFFFFFFFFFFFFFFF25
:20FC00000100000000000000000000000000000000000000000000000000000000000000E3
:20FC20000000000000000000000000000000000000000000000000000000000000000000C4
:20FC40000000000000000000000000000000000000000000000000000000000000000000A4
:20FC6000000000000000000000000000000000000000000000000000000000000000000084
:20FC8000000000000000000000000000000000000000000000000000000000000000000064
:20FCA000000000000000000000000000000000000000000000000000000000000000000044
:20FCC000000000000000000000000000000000000000000000000000000000000000000024
:20FCE000000000000000000000000000000000000000000000000000000000000000000004
:20FD00000000000000000000000000000000000000000000000000000000000000000000E3
:20FD20000000000000000000000000000000000000000000000000000000000000000000C3
:20FD40000000000000000000000000000000000000000000000000000000000000000000A3
:20FD6000000000000000000000000000000000000000000000000000000000000000000083
:20FD8000000000000000000000000000000000000000000000000000000000000000000063
:20FDA000000000000000000000000000000000000000000000000000000000000000000043
:20FDC000000000000000000000000000000000000000000000000000000000000000000023
:20FDE000000000000000000000000000000000000000000000000000000000000000000003
:20FE00000000000000000000000000000000000000000000000000000000000000000000E2
:20FE20000000000000000000000000000000000000000000000000000000000000000000C2
:20FE40000000000000000000000000000000000000000000000000000000000000000000A2
:20FE6000000000000000000000000000000000000000000000000000000000000000000082
:20FE8000000000000000000000000000000000000000000000000000000000000000000062
:20FEA000000000000000000000000000000000000000000000000000000000000000000042
:20FEC000000000000000000000000000000000000000000000000000000000000000000022
:20FEE000000000000000000000000000000000000000000000000000000000000000000002
:20FF00000000000000000000000000000000000000000000000000000000000000000000E1
:20FF20000000000000000000000000000000000000000000000000000000000000000000C1
:20FF40000000000000000000000000000000000000000000000000000000000000000000A1
:20FF6000000000000000000000000000000000000000000000000000000000000000000081
:20FF8000000000000000000000000000000000000000000000000000000000000000000061
:20FFA000000000000000000000000000000000000000000000000000000000000000000041
:20FFC000000000000000000000000000000000000000000000000000000000000000000021
:20FFE000000000000000000000000000000000000000000000000000000000000000000001
:00000001FF
